{
  "address": "0x001667AC4600b492C7B24dd0cc7578A304A411BC",
  "abi": [
    {
      "inputs": [
        {
          "internalType": "contract IERC20",
          "name": "_airdropToken",
          "type": "address"
        },
        {
          "internalType": "address",
          "name": "_owner",
          "type": "address"
        },
        {
          "internalType": "uint256",
          "name": "_thresholdTokenAmount",
          "type": "uint256"
        }
      ],
      "stateMutability": "nonpayable",
      "type": "constructor"
    },
    {
      "inputs": [
        {
          "internalType": "address",
          "name": "target",
          "type": "address"
        }
      ],
      "name": "AddressEmptyCode",
      "type": "error"
    },
    {
      "inputs": [
        {
          "internalType": "address",
          "name": "account",
          "type": "address"
        }
      ],
      "name": "AddressInsufficientBalance",
      "type": "error"
    },
    {
      "inputs": [],
      "name": "FailedInnerCall",
      "type": "error"
    },
    {
      "inputs": [
        {
          "internalType": "address",
          "name": "owner",
          "type": "address"
        }
      ],
      "name": "OwnableInvalidOwner",
      "type": "error"
    },
    {
      "inputs": [
        {
          "internalType": "address",
          "name": "account",
          "type": "address"
        }
      ],
      "name": "OwnableUnauthorizedAccount",
      "type": "error"
    },
    {
      "inputs": [
        {
          "internalType": "address",
          "name": "token",
          "type": "address"
        }
      ],
      "name": "SafeERC20FailedOperation",
      "type": "error"
    },
    {
      "anonymous": false,
      "inputs": [
        {
          "indexed": true,
          "internalType": "uint256",
          "name": "airdropID",
          "type": "uint256"
        },
        {
          "indexed": false,
          "internalType": "address",
          "name": "claimer",
          "type": "address"
        },
        {
          "indexed": false,
          "internalType": "uint256",
          "name": "amount",
          "type": "uint256"
        }
      ],
      "name": "AirdropClaim",
      "type": "event"
    },
    {
      "anonymous": false,
      "inputs": [
        {
          "indexed": true,
          "internalType": "uint256",
          "name": "airdropID",
          "type": "uint256"
        },
        {
          "indexed": false,
          "internalType": "uint256",
          "name": "initAt",
          "type": "uint256"
        },
        {
          "indexed": false,
          "internalType": "uint256",
          "name": "claimStartAt",
          "type": "uint256"
        }
      ],
      "name": "AirdropInit",
      "type": "event"
    },
    {
      "anonymous": false,
      "inputs": [
        {
          "indexed": false,
          "internalType": "address",
          "name": "newToken",
          "type": "address"
        }
      ],
      "name": "AirdropTokenRevised",
      "type": "event"
    },
    {
      "anonymous": false,
      "inputs": [
        {
          "indexed": true,
          "internalType": "address",
          "name": "previousOwner",
          "type": "address"
        },
        {
          "indexed": true,
          "internalType": "address",
          "name": "newOwner",
          "type": "address"
        }
      ],
      "name": "OwnershipTransferStarted",
      "type": "event"
    },
    {
      "anonymous": false,
      "inputs": [
        {
          "indexed": true,
          "internalType": "address",
          "name": "previousOwner",
          "type": "address"
        },
        {
          "indexed": true,
          "internalType": "address",
          "name": "newOwner",
          "type": "address"
        }
      ],
      "name": "OwnershipTransferred",
      "type": "event"
    },
    {
      "anonymous": false,
      "inputs": [
        {
          "indexed": false,
          "internalType": "uint256",
          "name": "balance",
          "type": "uint256"
        },
        {
          "indexed": false,
          "internalType": "uint256",
          "name": "threshold",
          "type": "uint256"
        }
      ],
      "name": "ThresholdReached",
      "type": "event"
    },
    {
      "anonymous": false,
      "inputs": [
        {
          "indexed": false,
          "internalType": "uint256",
          "name": "oldThreshold",
          "type": "uint256"
        },
        {
          "indexed": false,
          "internalType": "uint256",
          "name": "newThreshold",
          "type": "uint256"
        }
      ],
      "name": "ThresholdUpdated",
      "type": "event"
    },
    {
      "inputs": [],
      "name": "CLAIM_START_DURATION",
      "outputs": [
        {
          "internalType": "uint256",
          "name": "",
          "type": "uint256"
        }
      ],
      "stateMutability": "view",
      "type": "function"
    },
    {
      "inputs": [],
      "name": "acceptOwnership",
      "outputs": [],
      "stateMutability": "nonpayable",
      "type": "function"
    },
    {
      "inputs": [
        {
          "internalType": "uint256",
          "name": "airdropID",
          "type": "uint256"
        }
      ],
      "name": "airDrops",
      "outputs": [
        {
          "internalType": "bytes32",
          "name": "merkleRoot",
          "type": "bytes32"
        },
        {
          "internalType": "uint256",
          "name": "numberOfUsers",
          "type": "uint256"
        },
        {
          "internalType": "uint256",
          "name": "startedAt",
          "type": "uint256"
        }
      ],
      "stateMutability": "view",
      "type": "function"
    },
    {
      "inputs": [],
      "name": "airdropToken",
      "outputs": [
        {
          "internalType": "contract IERC20",
          "name": "",
          "type": "address"
        }
      ],
      "stateMutability": "view",
      "type": "function"
    },
    {
      "inputs": [
        {
          "internalType": "bytes32[]",
          "name": "_proof",
          "type": "bytes32[]"
        },
        {
          "internalType": "uint256",
          "name": "airdropID",
          "type": "uint256"
        },
        {
          "internalType": "uint256",
          "name": "_amount",
          "type": "uint256"
        }
      ],
      "name": "claim",
      "outputs": [],
      "stateMutability": "nonpayable",
      "type": "function"
    },
    {
      "inputs": [
        {
          "internalType": "bytes32",
          "name": "_merkleRoot",
          "type": "bytes32"
        },
        {
          "internalType": "uint256",
          "name": "_numberOfUsers",
          "type": "uint256"
        }
      ],
      "name": "init",
      "outputs": [
        {
          "internalType": "uint256",
          "name": "airdropID",
          "type": "uint256"
        }
      ],
      "stateMutability": "nonpayable",
      "type": "function"
    },
    {
      "inputs": [],
      "name": "owner",
      "outputs": [
        {
          "internalType": "address",
          "name": "",
          "type": "address"
        }
      ],
      "stateMutability": "view",
      "type": "function"
    },
    {
      "inputs": [],
      "name": "pendingOwner",
      "outputs": [
        {
          "internalType": "address",
          "name": "",
          "type": "address"
        }
      ],
      "stateMutability": "view",
      "type": "function"
    },
    {
      "inputs": [],
      "name": "renounceOwnership",
      "outputs": [],
      "stateMutability": "nonpayable",
      "type": "function"
    },
    {
      "inputs": [
        {
          "internalType": "contract IERC20",
          "name": "_airdropToken",
          "type": "address"
        }
      ],
      "name": "revise",
      "outputs": [],
      "stateMutability": "nonpayable",
      "type": "function"
    },
    {
      "inputs": [
        {
          "internalType": "address",
          "name": "newOwner",
          "type": "address"
        }
      ],
      "name": "transferOwnership",
      "outputs": [],
      "stateMutability": "nonpayable",
      "type": "function"
    },
    {
      "inputs": [
        {
          "internalType": "uint256",
          "name": "_threshold",
          "type": "uint256"
        }
      ],
      "name": "updateThresholdAmount",
      "outputs": [],
      "stateMutability": "nonpayable",
      "type": "function"
    },
    {
      "inputs": [
        {
          "internalType": "uint256",
          "name": "_amount",
          "type": "uint256"
        },
        {
          "internalType": "address",
          "name": "_receiver",
          "type": "address"
        }
      ],
      "name": "withdrawTokens",
      "outputs": [],
      "stateMutability": "nonpayable",
      "type": "function"
    }
  ],
  "args": [
    "0x58469e312683d98DADbD56a6deAc69Aee63f22B5",
    "0xD2344ce2CFEaD1cBE24e33E8301411d62946A1d2",
    "10000000000000000000"
  ],
  "numDeployments": 1,
  "solcInputHash": "7fa7894adf148fe1a66686b7854895bd",
  "bytecode": "0x608060405260016002553480156200001657600080fd5b506040516200130438038062001304833981016040819052620000399162000124565b816001600160a01b0381166200006957604051631e4fbdf760e01b81526000600482015260240160405180910390fd5b6200007481620000a0565b50600480546001600160a01b0319166001600160a01b039490941693909317909255506003556200016c565b600180546001600160a01b0319169055620000bb81620000be565b50565b600080546001600160a01b038381166001600160a01b0319831681178455604051919092169283917f8be0079c531659141344cd1fd0a4f28419497f9722a3daafe3b4186f6b6457e09190a35050565b6001600160a01b0381168114620000bb57600080fd5b6000806000606084860312156200013a57600080fd5b835162000147816200010e565b60208501519093506200015a816200010e565b80925050604084015190509250925092565b611188806200017c6000396000f3fe608060405234801561001057600080fd5b50600436106100df5760003560e01c80638da5cb5b1161008c578063d4a6da0911610066578063d4a6da09146101d2578063db200bfa146101e5578063e30c3978146101f8578063f2fde38b1461020957600080fd5b80638da5cb5b146101965780639bc5d2db146101a7578063a4a707b2146101bf57600080fd5b8063715018a6116100bd578063715018a61461017357806379ba50971461017b57806382c90ac01461018357600080fd5b8063398d92bb146100e45780634cef7bcd146100f95780634d06068a14610148575b600080fd5b6100f76100f2366004610f24565b61021c565b005b610128610107366004610f54565b60066020526000908152604090208054600182015460029092015490919083565b604080519384526020840192909252908201526060015b60405180910390f35b60045461015b906001600160a01b031681565b6040516001600160a01b03909116815260200161013f565b6100f7610334565b6100f7610348565b6100f7610191366004610f6d565b61038c565b6000546001600160a01b031661015b565b6101b16206978081565b60405190815260200161013f565b6101b16101cd366004610f8a565b610471565b6100f76101e0366004610fc2565b610607565b6100f76101f3366004610f54565b610919565b6001546001600160a01b031661015b565b6100f7610217366004610f6d565b610966565b6102246109e4565b6000821180156102a35750600480546040516370a0823160e01b8152309281019290925283916001600160a01b03909116906370a0823190602401602060405180830381865afa15801561027c573d6000803e3d6000fd5b505050506040513d601f19601f820116820180604052508101906102a09190611090565b10155b6103195760405162461bcd60e51b8152602060048201526024808201527f496e76616c69642062616c616e6365206f6620746f6b656e20746f207769746860448201527f647261770000000000000000000000000000000000000000000000000000000060648201526084015b60405180910390fd5b600454610330906001600160a01b03168284610a11565b5050565b61033c6109e4565b6103466000610a96565b565b60015433906001600160a01b031681146103805760405163118cdaa760e01b81526001600160a01b0382166004820152602401610310565b61038981610a96565b50565b6103946109e4565b6001600160a01b0381166104105760405162461bcd60e51b815260206004820152602660248201527f41697264726f703a20546f6b656e2073686f756c64206e6f74207a65726f206160448201527f64647265737300000000000000000000000000000000000000000000000000006064820152608401610310565b6004805473ffffffffffffffffffffffffffffffffffffffff19166001600160a01b0383169081179091556040519081527f23bfc61fb79bb1f9f9c2d6dd4d0159c61da68b2bf15643049a641062bc2c5b349060200160405180910390a150565b600061047b6109e4565b826104ee5760405162461bcd60e51b815260206004820152602a60248201527f41697264726f703a204d65726b6c6520526f6f742073686f756c64206e6f742060448201527f7a65726f206279746573000000000000000000000000000000000000000000006064820152608401610310565b600082116105645760405162461bcd60e51b815260206004820152602860248201527f41697264726f703a206e756d626572206f662075736572732073686f756c642060448201527f6e6f74207a65726f0000000000000000000000000000000000000000000000006064820152608401610310565b506040805160608101825283815260208082018481524283850190815260028054600090815260069094529483209351845590516001840155519183019190915581549182916105b3836110bf565b909155508190507f82aac29082ee6e5be5fd28f0c75ddd34ee2fdfa62057a6ce2b5e8b1a8108399b426105e962069780826110d8565b6040805192835260208301919091520160405180910390a292915050565b60008281526006602090815260409182902082516060810184528154815260018201549281019290925260020154918101829052339161064b9062069780906110d8565b42116106995760405162461bcd60e51b815260206004820152601a60248201527f41697264726f703a20436c61696d206e6f7420737461727465640000000000006044820152606401610310565b60008481526005602090815260408083206001600160a01b038616845290915290205460ff161561070c5760405162461bcd60e51b815260206004820152601d60248201527f41697264726f703a205573657220616c726561647920636c61696d65640000006044820152606401610310565b600480546040516370a0823160e01b815230928101929092526000916001600160a01b03909116906370a0823190602401602060405180830381865afa15801561075a573d6000803e3d6000fd5b505050506040513d601f19601f8201168201806040525081019061077e9190611090565b9050600354811161080e576003546040805183815260208101929092527f8ed12daf03921f6cf3d38d560dee47e5e323c2a96469beef3cdb39c23ef1a742910160405180910390a160405162461bcd60e51b815260206004820152601d60248201527f546f6b656e2062616c616e6365206c6f7720746f207472616e736665720000006044820152606401610310565b61081e8683600001518587610abc565b6108905760405162461bcd60e51b815260206004820152603760248201527f41697264726f703a20496e76616c6964207072726f66207375626d697474656460448201527f207768696c6520636c61696d696e672061697264726f700000000000000000006064820152608401610310565b60008581526005602090815260408083206001600160a01b0380881685529252909120805460ff191660011790556004546108cd91168486610a11565b604080516001600160a01b03851681526020810186905286917f7aa9a4c4d86bea82737ea3a63b08048bcaf4037544c063e482fcd38637165123910160405180910390a2505050505050565b6109216109e4565b600380549082905560408051828152602081018490527fb06a54caabe58475c86c2bf9df3f2f06dd1213e9e10659c293117fe4893b274b910160405180910390a15050565b61096e6109e4565b600180546001600160a01b03831673ffffffffffffffffffffffffffffffffffffffff1990911681179091556109ac6000546001600160a01b031690565b6001600160a01b03167f38d16b8cac22d99fc7c124b9cd0de2d3fa1faef420bfe791d8c362d765e2270060405160405180910390a350565b6000546001600160a01b031633146103465760405163118cdaa760e01b8152336004820152602401610310565b604080516001600160a01b038416602482015260448082018490528251808303909101815260649091019091526020810180517bffffffffffffffffffffffffffffffffffffffffffffffffffffffff167fa9059cbb00000000000000000000000000000000000000000000000000000000179052610a91908490610c28565b505050565b6001805473ffffffffffffffffffffffffffffffffffffffff1916905561038981610ca4565b60008451600003610b355760405162461bcd60e51b815260206004820152602f60248201527f41697264726f703a204d65726b6c652050726f6f662073686f756c64206e6f7460448201527f206265207a65726f206c656e67746800000000000000000000000000000000006064820152608401610310565b6001600160a01b03831615801590610b4d5750600082115b610bbf5760405162461bcd60e51b815260206004820152602d60248201527f41697264726f703a205a65726f2061646472657373202620616d6f756e74206960448201527f73206e6f7420616c6c6f776564000000000000000000000000000000000000006064820152608401610310565b604080516001600160a01b038516602082015290810183905260009060600160408051601f1981840301815282825280516020918201209083015201604051602081830303815290604052805190602001209050610c1e868683610d01565b9695505050505050565b6000610c3d6001600160a01b03841683610d19565b90508051600014158015610c62575080806020019051810190610c6091906110eb565b155b15610a91576040517f5274afe70000000000000000000000000000000000000000000000000000000081526001600160a01b0384166004820152602401610310565b600080546001600160a01b0383811673ffffffffffffffffffffffffffffffffffffffff19831681178455604051919092169283917f8be0079c531659141344cd1fd0a4f28419497f9722a3daafe3b4186f6b6457e09190a35050565b600082610d0e8584610d30565b1490505b9392505050565b6060610d2783836000610d7d565b90505b92915050565b600081815b8451811015610d7557610d6182868381518110610d5457610d5461110d565b6020026020010151610e29565b915080610d6d816110bf565b915050610d35565b509392505050565b606081471015610dbb576040517fcd786059000000000000000000000000000000000000000000000000000000008152306004820152602401610310565b600080856001600160a01b03168486604051610dd79190611123565b60006040518083038185875af1925050503d8060008114610e14576040519150601f19603f3d011682016040523d82523d6000602084013e610e19565b606091505b5091509150610c1e868383610e58565b6000818310610e45576000828152602084905260409020610d27565b6000838152602083905260409020610d27565b606082610e6d57610e6882610ecd565b610d12565b8151158015610e8457506001600160a01b0384163b155b15610ec6576040517f9996b3150000000000000000000000000000000000000000000000000000000081526001600160a01b0385166004820152602401610310565b5080610d12565b805115610edd5780518082602001fd5b6040517f1425ea4200000000000000000000000000000000000000000000000000000000815260040160405180910390fd5b6001600160a01b038116811461038957600080fd5b60008060408385031215610f3757600080fd5b823591506020830135610f4981610f0f565b809150509250929050565b600060208284031215610f6657600080fd5b5035919050565b600060208284031215610f7f57600080fd5b8135610d1281610f0f565b60008060408385031215610f9d57600080fd5b50508035926020909101359150565b634e487b7160e01b600052604160045260246000fd5b600080600060608486031215610fd757600080fd5b833567ffffffffffffffff80821115610fef57600080fd5b818601915086601f83011261100357600080fd5b813560208282111561101757611017610fac565b8160051b604051601f19603f8301168101818110868211171561103c5761103c610fac565b60405292835281830193508481018201928a84111561105a57600080fd5b948201945b838610156110785785358552948201949382019361105f565b9a918901359950506040909701359695505050505050565b6000602082840312156110a257600080fd5b5051919050565b634e487b7160e01b600052601160045260246000fd5b6000600182016110d1576110d16110a9565b5060010190565b80820180821115610d2a57610d2a6110a9565b6000602082840312156110fd57600080fd5b81518015158114610d1257600080fd5b634e487b7160e01b600052603260045260246000fd5b6000825160005b81811015611144576020818601810151858301520161112a565b50600092019182525091905056fea2646970667358221220d385f5714bd1094d2bd9b1b243fd636806db690b9b31c5b89c0440160f58c2f964736f6c63430008140033",
  "devdoc": {
    "errors": {
      "AddressEmptyCode(address)": [
        {
          "details": "There's no code at `target` (it is not a contract)."
        }
      ],
      "AddressInsufficientBalance(address)": [
        {
          "details": "The ETH balance of the account is not enough to perform the operation."
        }
      ],
      "FailedInnerCall()": [
        {
          "details": "A call to an address target failed. The target may have reverted."
        }
      ],
      "OwnableInvalidOwner(address)": [
        {
          "details": "The owner is not a valid owner account. (eg. `address(0)`)"
        }
      ],
      "OwnableUnauthorizedAccount(address)": [
        {
          "details": "The caller account is not authorized to perform an operation."
        }
      ],
      "SafeERC20FailedOperation(address)": [
        {
          "details": "An operation with an ERC20 token failed."
        }
      ]
    },
    "kind": "dev",
    "methods": {
      "acceptOwnership()": {
        "details": "The new owner accepts the ownership transfer."
      },
      "owner()": {
        "details": "Returns the address of the current owner."
      },
      "pendingOwner()": {
        "details": "Returns the address of the pending owner."
      },
      "renounceOwnership()": {
        "details": "Leaves the contract without owner. It will not be possible to call `onlyOwner` functions. Can only be called by the current owner. NOTE: Renouncing ownership will leave the contract without an owner, thereby disabling any functionality that is only available to the owner."
      },
      "transferOwnership(address)": {
        "details": "Starts the ownership transfer of the contract to a new account. Replaces the pending transfer if there is one. Can only be called by the current owner."
      }
    },
    "version": 1
  },
  "userdoc": {
    "kind": "user",
    "methods": {},
    "version": 1
  },
  "storageLayout": {
    "storage": [
      {
        "astId": 8,
        "contract": "contracts/Airdrop.sol:Airdrop",
        "label": "_owner",
        "offset": 0,
        "slot": "0",
        "type": "t_address"
      },
      {
        "astId": 156,
        "contract": "contracts/Airdrop.sol:Airdrop",
        "label": "_pendingOwner",
        "offset": 0,
        "slot": "1",
        "type": "t_address"
      },
      {
        "astId": 1482,
        "contract": "contracts/Airdrop.sol:Airdrop",
        "label": "airdropsCount",
        "offset": 0,
        "slot": "2",
        "type": "t_uint256"
      },
      {
        "astId": 1484,
        "contract": "contracts/Airdrop.sol:Airdrop",
        "label": "thresholdBalance",
        "offset": 0,
        "slot": "3",
        "type": "t_uint256"
      },
      {
        "astId": 1487,
        "contract": "contracts/Airdrop.sol:Airdrop",
        "label": "airdropToken",
        "offset": 0,
        "slot": "4",
        "type": "t_contract(IERC20)311"
      },
      {
        "astId": 1493,
        "contract": "contracts/Airdrop.sol:Airdrop",
        "label": "claimStatus",
        "offset": 0,
        "slot": "5",
        "type": "t_mapping(t_uint256,t_mapping(t_address,t_bool))"
      },
      {
        "astId": 1498,
        "contract": "contracts/Airdrop.sol:Airdrop",
        "label": "airDrops",
        "offset": 0,
        "slot": "6",
        "type": "t_mapping(t_uint256,t_struct(AirdropInfos)1476_storage)"
      }
    ],
    "types": {
      "t_address": {
        "encoding": "inplace",
        "label": "address",
        "numberOfBytes": "20"
      },
      "t_bool": {
        "encoding": "inplace",
        "label": "bool",
        "numberOfBytes": "1"
      },
      "t_bytes32": {
        "encoding": "inplace",
        "label": "bytes32",
        "numberOfBytes": "32"
      },
      "t_contract(IERC20)311": {
        "encoding": "inplace",
        "label": "contract IERC20",
        "numberOfBytes": "20"
      },
      "t_mapping(t_address,t_bool)": {
        "encoding": "mapping",
        "key": "t_address",
        "label": "mapping(address => bool)",
        "numberOfBytes": "32",
        "value": "t_bool"
      },
      "t_mapping(t_uint256,t_mapping(t_address,t_bool))": {
        "encoding": "mapping",
        "key": "t_uint256",
        "label": "mapping(uint256 => mapping(address => bool))",
        "numberOfBytes": "32",
        "value": "t_mapping(t_address,t_bool)"
      },
      "t_mapping(t_uint256,t_struct(AirdropInfos)1476_storage)": {
        "encoding": "mapping",
        "key": "t_uint256",
        "label": "mapping(uint256 => struct Airdrop.AirdropInfos)",
        "numberOfBytes": "32",
        "value": "t_struct(AirdropInfos)1476_storage"
      },
      "t_struct(AirdropInfos)1476_storage": {
        "encoding": "inplace",
        "label": "struct Airdrop.AirdropInfos",
        "members": [
          {
            "astId": 1471,
            "contract": "contracts/Airdrop.sol:Airdrop",
            "label": "merkleRoot",
            "offset": 0,
            "slot": "0",
            "type": "t_bytes32"
          },
          {
            "astId": 1473,
            "contract": "contracts/Airdrop.sol:Airdrop",
            "label": "numberOfUsers",
            "offset": 0,
            "slot": "1",
            "type": "t_uint256"
          },
          {
            "astId": 1475,
            "contract": "contracts/Airdrop.sol:Airdrop",
            "label": "startedAt",
            "offset": 0,
            "slot": "2",
            "type": "t_uint256"
          }
        ],
        "numberOfBytes": "96"
      },
      "t_uint256": {
        "encoding": "inplace",
        "label": "uint256",
        "numberOfBytes": "32"
      }
    }
  }
}